:020000040800F2
:1000000000000120C5020008CB020008CF02000852
:1000100041030008450300088D03000800000000AC
:10002000000000000000000000000000D5030008F0
:10003000D903000800000000DD0300089507000850
:10004000F1030008F1030008F1030008F1030008C0
:10005000F1030008F1030008B5090008D109000800
:10006000F1030008F1030008F1030008F1030008A0
:10007000F1030008F1030008F1030008F103000890
:10008000F1030008F1030008F1030008000000007C
:10009000000000000000000000000000F103000864
:1000A000F1030008F1030008F1030008F103000860
:1000B000F1030008F1030008F1030008F103000850
:1000C000F1030008F1030008F1030008E507000848
:1000D000F10300082D090008F103000800000000EA
:1000E000F1030008F1030008F1030008000000001C
:1000F000000000000000000000000000F103000804
:1001000000000000F1030008F1030008F1030008FB
:1001100000000000000000000000000000000000DF
:10012000F1030008F1030008F1030008F1030008DF
:10013000F1030008000000000000000000000000C3
:10014000000000000000000000000000F1030008B3
:10015000F1030008F1030008F1030008F1030008AF
:10016000F1030008F1030008000000000000000097
:10017000000000000000000000000000000000007F
:1001800000000000F1030008000000000000000073
:10019000F103000800B583B000F0BAF9384B394AD2
:1001A0001360394A1360394900E02146384B9942BF
:1001B0000BD20A684B6801F10C0488689842F4D9A4
:1001C0001168196004330432F8E72E4B1A68314B7A
:1001D0009A4200D0FEE72C4B1A682F4B9A42F9D175
:1001E000274B2E4A13602E4A13602E4B05E0002049
:1001F000106004329342FAD80B462B4A934204D241
:10020000194651F8082B5B68F4E7244B1B6813B9B7
:10021000234B1B6803B1FEE700F086F9694601A88D
:1002200000F022F9214C224BE41AA4100025AC4224
:1002300014DC204C204BE41AA4100025AC4213DC43
:100240000099019800F0BEFD05461C4C1C4BE41AB9
:10025000A410002C0EDC284600F0E2F8144B53F8F2
:10026000253098470135E2E7134B53F8253098477E
:100270000135E3E7013C124B53F824309847E8E797
:10028000BABADECA0000002074000020F40300089F
:100290000C04000878563412325476987800002006
:1002A000287700200C0400081C0400081C04000827
:1002B0001C0400081C0400081C0400081C0400089E
:1002C0001C04000808B5FFF765FF00BEFEE71EF03E
:1002D000040F0CBFEFF30880EFF309807146414A29
:1002E00010472DE9F04182B004468846124B5E6B00
:1002F0009F6B9D6A1B6B13F0020F03D00E4BDB6AE2
:10030000002B0CDB0D4800F0B7F8CDF800803B4621
:1003100032462946204600F00BF900BEFEE74BF6B8
:10032000AB6100F07FF90028ECD0034B4FF00042A6
:10033000DA6202B0BDE8F08100ED00E004190008C7
:1003400000BEFEE71EF0040F0CBFEFF30880EFF3D2
:1003500009807146244A10472DE9F04182B00446D5
:100360008846084B5E6B9F6B9D6A074800F084F8D7
:10037000CDF800803B4632462946204600F0D8F8AA
:1003800000BEFEE700ED00E0141900081EF0040FA7
:100390000CBFEFF30880EFF309807146134A104752
:1003A0002DE9F04182B004468846084B5E6B9F6B96
:1003B0009D6A074800F060F8CDF800803B46324661
:1003C0002946204600F0B4F800BEFEE700ED00E04C
:1003D0002019000800BEFEE700BEFEE700BEFEE7F3
:1003E00070470000E302000859030008A103000859
:0403F00000BEFEE766
:1003F4003C1A000800000020780000203C1A000885
:100404000000001000000010780000202C7700206D
:080414000000001000000010C0
:10042000FEE7000008B503460C4A12685AB10B4AB1
:100430001068033323F003030344094A934206D8A8
:10044000064A136008BD054A06491160EFE700F04F
:1004500053FD0C2303604FF0FF30F3E77C000020D6
:1004600000FC00202C77002001230360014B0B606F
:10047000704700BF040000200FB400B583B004AB88
:1004800053F8042B01938021064800F067FD0028F3
:1004900003DD0146034800F037F803B05DF804EBD4
:1004A00004B07047840000202DE9F04385B0044675
:1004B0000F4643560BB10E461EE004252846214642
:1004C000ABBE0446384605B0BDE8F08314F9011B05
:1004D00004AA1A4402F8101C0133AB42F6D304AA52
:1004E0001344002203F8102C4FF00408E94640465C
:1004F0004946ABBE8046761B002EE3D03546102E13
:1005000028BF10250023E8E708B5FFF7CDFF08BD99
:1005100008B500F097F8024A024B9A6008BD00BF88
:100520000000000800ED00E008B500F0ABF808BDE1
:10053000F8B504460D4617461E462748FFF79CFFB0
:1005400021682648FFF798FF61682548FFF794FF68
:10055000A1682448FFF790FFE1682348FFF78CFF6C
:1005600021692248FFF788FF61692148FFF784FF6E
:10057000A1692048FFF780FFE1691F48FFF77CFF72
:100580001E48FFF779FF29461D48FFF775FF1D4CF0
:10059000E16A1D48FFF770FF216B1C48FFF76CFFF5
:1005A000E16B1B48FFF768FF15F0800F0AD115F4C7
:1005B000004F0CD11748FFF75FFF06991648FFF769
:1005C0005BFFF8BD39461548FFF756FFEFE73146A8
:1005D0001348FFF751FFEDE7E8170008F817000888
:1005E000081800081818000828180008381800080B
:1005F00048180008581800086818000878180008FB
:100600008418000800ED00E094180008A418000801
:10061000B4180008E4180008EC180008C418000812
:10062000D418000883691A888A4201D000207047D4
:100630000268033A012A03D802338361012070471C
:10064000002070470C4B1A6842F001021A6000212A
:1006500099601A6822F0847222F480321A60074A84
:100660005A601A6822F480221A60D960044B4FF055
:1006700000629A60704700BF0038024010300024CA
:1006800000ED00E0224B9B6803F00C03042B14D018
:10069000082B16D01BB11F4B1F4A1A6002E01D4BDE
:1006A0001D4A1A601A4B9B68C3F303131B4AD15CA3
:1006B000184A1368CB4013607047164B184A1A60EB
:1006C000F0E7134B5A685B6803F03F0312F4800FA6
:1006D00013D0134AB2FBF3F20D4B5B68C3F38813DC
:1006E00003FB02F30A4A5268C2F30142013252008C
:1006F000B3FBF2F3074A1360D4E7074AB2FBF3F205
:10070000034B5B68C3F3881303FB02F3EAE700BF04
:10071000003802400C0000200024F40030190008CA
:1007200040787D01014B00221A60704710E000E024
:10073000044B586000229A601A6842F001021A6065
:10074000704700BF10E000E0024B1868C0F30040A3
:10075000704700BF10E000E0044B1A6822F002026C
:100760001A601A6842EA40001860704710E000E022
:1007700010B50446FFF7D6FF0020FFF7EDFF4FF45A
:10078000FA6000FB04F0FFF7D3FFFFF7DDFF00285E
:10079000FBD010BD00B583B000238DF80730054BAA
:1007A0001B689847FFF7D0FF8DF8070003B05DF88E
:1007B00004FB00BF04010020084B00221A60400027
:1007C00058609A601A6842F001021A60044A116087
:1007D0001A6842F002021A60704700BF10E000E0A1
:1007E0000401002008B5024B1B68984708BD00BFF4
:1007F0000801002000F01F02400901239340024A33
:1008000042F82030704700BF00E100E003390429BE
:1008100004D8DFE801F00D170F13040000231B01BB
:10082000DBB200F1604000F5614080F800337047B2
:100830001346F4E743EA8203DBB2F0E743EAC2037C
:10084000DBB2ECE743EA4203DBB2E8E7044B054ADC
:100850001A60000240F0BF6040F40030186070473A
:100860000CED00E00000FA05114B8B229A60DA686B
:100870006FF3CF32DA60DA686FF30C32DA60DA687D
:100880006FF38A22DA601A6922F480521A611A69B7
:1008900022F400521A61DA6842F00802DA60DA687B
:1008A00042F00402DA60DA6842F02002DA6070474F
:1008B0000010014000228A420ED210B4845C074B23
:1008C0005C60064B1B6813F0800FFAD00132D2B285
:1008D0008A42F3D310BC7047704700BF001001403C
:1008E000002208E006494B60054B1B6813F0400FDF
:1008F000FAD00132D2B2835C002BF3D1704700BF33
:1009000000100140014B5868C0B270470010014010
:10091000024AD36843F40053D3607047001001408B
:10092000014B1860704700BF0C01002008B5034B55
:100930001B689847024B00221A6008BD0C0100207A
:100940000010014002280BD0032811D000B17047DD
:100950000B480368012202FA01F119430160704754
:1009600008480368012202FA01F119430160704747
:1009700005480368012202FA01F119430160E6E724
:10098000303802404038024044380240074A136879
:1009900043F001031360064B1A6822F001021A604B
:1009A0001A6822F002021A60704700BF0038024045
:1009B0000838024008B5044B1B689847034A53693E
:1009C00043F00103536108BD10010020003C0140C9
:1009D00008B5044B1B689847034A536943F0020368
:1009E000536108BD14010020003C01400F2922D8AA
:1009F00001280ED018B1022814D00220704710B47C
:100A00000E4C2368490002FA01F11943216010BC21
:100A100070470B480368490002FA01F1194301606D
:100A20000020704707480368490002FA01F11943A2
:100A30000160002070470120704700BF00000240A5
:100A400000040240000802400F2922D801280ED0DD
:100A500018B1022814D00220704710B40E4C6368FD
:100A6000490002FA01F11943616010BC70470B485C
:100A70004368490002FA01F11943416000207047C0
:100A800007484368490002FA01F119434160002018
:100A900070470120704700BF000002400004024080
:100AA000000802400F2922D801280ED018B10228D0
:100AB00014D00220704710B40E4CA368490002FA0B
:100AC00001F11943A16010BC70470B4883684900CD
:100AD00002FA01F1194381600020704707488368DA
:100AE000490002FA01F1194381600020704701209A
:100AF000704700BF000002400004024000080240AE
:100B00000F2948D810B4012A06D001282FD020B3CD
:100B1000022836D0022028E001280CD018B1022883
:100B200012D0022021E01D4C6369012202FA01F17A
:100B30001943616119E01A484369012202FA01F17F
:100B400019434161002010E016484369012202FA6E
:100B500001F119434161002007E0104C6369012253
:100B600002FA01F123EA0101616110BC70470C48EF
:100B70004369012202FA01F123EA010141610020E7
:100B8000F3E708484369012202FA01F123EA01016F
:100B900041610020E9E70120704700BF00000240EA
:100BA000000402400008024007291DD801280BD08C
:100BB00010B1022810D070471E48036A890002FA5B
:100BC00001F11943016270471B48036A890002FA68
:100BD00001F11943016270471848036A890002FA5B
:100BE00001F119430162704710B401280ED018B109
:100BF000022815D010BC70470E4C606A01F0070344
:100C00009B0002FA03F101436162F3E70A4C606A58
:100C100001F007039B0002FA03F101436162E9E777
:100C20000648436A01F00701890002FA01F11943FD
:100C30004162DFE700000240000402400008024079
:100C400008B5FFF75FFE034A13780349C854013320
:100C5000137008BDE0010020180100200023054AA0
:100C6000137004E0044A0021D1540133DBB2C72BD6
:100C7000F8D97047E00100201801002008B50C48A1
:100C8000FFF74EFE04210B48FFF714FE40F6B83084
:100C9000FFF76EFDFFF7E2FF0D210748FFF70AFEA1
:100CA00040F6B830FFF764FDFFF7D8FF08BD00BF7E
:100CB000410C0008C0190008C819000838B50546DD
:100CC0000C46FFF7CBFF0A48FFF70AFE2846FFF75E
:100CD00007FE0848FFF704FE2046FFF701FE06481E
:100CE000FFF7FEFD4FF4FA50FFF742FD38BD00BF9D
:100CF000AC190008A0190008BC19000838B5054651
:100D00000C46FFF7ABFF0A48FFF7EAFD2846FFF75E
:100D1000E7FD0848FFF7E4FD2046FFF7E1FD064840
:100D2000FFF7DEFD4FF4FA60FFF722FD38BD00BF8C
:100D300090190008A4190008A819000838B504463D
:100D40000D46FFF78BFF1248FFF7CAFD2846FFF755
:100D5000C7FD1048FFF7C4FD4FF47A60FFF708FDA8
:100D6000FFF77CFF0C48FFF7BBFD2046FFF7B8FDFF
:100D70000A48FFF7B5FD41F28830FFF7F9FC084B50
:100D800093F8255007492046FFF7B8FF284638BD9D
:100D900040190008A8190008701900087C190008FB
:100DA000180100208C19000808B5034B034A1A608B
:100DB000034B984708BD00BF08ED00E00040000865
:100DC0000440000808B500F023F806E001220021E5
:100DD0000846FFF795FE00F067F80A4B1B78002BDA
:100DE000F4D0012BF9D1002211461046FFF788FEFE
:100DF00005490648FFF7E0FC002211461046FFF7C0
:100E00007FFEEAE7E1010020A90D000840420F0043
:100E100008B5FFF7BBFD00210846FFF793FD01224F
:100E200000210846FFF7E2FD002211461046FFF7B9
:100E300039FE002211461046FFF706FE042103206A
:100E4000FFF780FD022209210020FFF7CFFD0222DB
:100E50000A210020FFF7CAFD072209210020FFF721
:100E6000A3FE07220A210020FFF79EFE0320FFF7C2
:100E7000EDFC00231A4603212520FFF7C7FC25209F
:100E8000FFF7B8FCFFF74EFCFFF7EEFCFFF740FD65
:100E9000FFF7F4FE02490348FFF710FF08BD00BF4B
:100EA000D8190008E41900080D4B1B78B3B910B528
:100EB0000C4C0D492046FFF721FF0C492046FFF757
:100EC0003DFF0B4A13680B49C85401331360FFF709
:100ED000C5FE034B1B78002BEAD010BD704700BF46
:100EE00018770020F01900088C190008041A00086F
:100EF000E4010020E8010020014B1868704700BFA2
:100F00001000002030B5141E05469BB0184605DAC7
:100F10008B232B604FF0FF301BB030BD4FF40273BA
:100F2000ADF80C3014BF04F1FF3323460293059350
:100F30004FF6FF7300910491ADF80E3002461E9BF0
:100F40006946284600F072F8431CBCBF8B232B6017
:100F5000002CE1D0009B00221A70DDE707B500935A
:100F600013460A46014603480068FFF7CBFF03B06B
:100F70005DF804FB100000202DE9F0478E689E42CA
:100F800082460C469046994637D88A8912F4906F6B
:100F900031D0256809696F1A6569022305EB45059B
:100FA00095FBF3F509F101033B449D4238BF1D4613
:100FB000530530D5294600F07DFB064650B90C2379
:100FC000CAF80030A38943F04003A3814FF0FF30FB
:100FD000BDE8F0873A46216900F0FAFAA38923F4C4
:100FE000906343F08003A381266165613E44ED1B5D
:100FF0002660A5604E464E4500D94E4632464146D3
:10100000206800F0F0FAA3689B1BA36023681E44CD
:1010100026600020DCE72A4600F0A6FB06460028F2
:10102000E2D12169504600F0F7FAC8E72DE9F04F08
:101030009DB0804603938B891D060C4616460FD53E
:101040000B696BB9402100F035FB2060206128B9A5
:101050000C23C8F800304FF0FF30C7E04023636135
:101060000023099320238DF8293030238DF82A306E
:101070004FF0010B37463D4615F8013B0BB1252BD0
:101080003ED1B7EB060A0BD05346324621464046C6
:10109000FFF772FF013000F0A480099B53440993CD
:1010A0003B78002B00F09D8000234FF0FF32CDE90C
:1010B0000523049307938DF853301A932F46052286
:1010C00017F8011B4F4800F033FA049BD0B9D9063A
:1010D00044BF20228DF853201A0744BF2B228DF8DD
:1010E00053202A782A2A15D0079A2F4600200A254D
:1010F000394611F8013B303B092B4DD9B8B10FE00F
:101100002F46B8E73F4A801A0BFA00F018430490C4
:101110003D46D3E7039A111D12680391002A01DBB3
:10112000079204E0524243F00203079204933B7893
:101130002E2B0CD17B782A2B33D1039B1A1D1B68D5
:101140000392002BB8BF4FF0FF33023705932E4DAB
:1011500039780322284600F0EBF938B14023401BD0
:1011600003FA00F0049B03430137049339782748BE
:101170008DF8281006227E1C00F0DAF9002838D0FD
:10118000234B13BB039B073323F00703083303935D
:10119000099B4B4409936DE705FB023201200F4682
:1011A000A6E700230137059319460A25384610F8AB
:1011B000012B303A092A03D9002BC8D00591C6E784
:1011C00005FB012101230746F0E703AB009322460C
:1011D000104B04A94046AFF30080B0F1FF3F8146B9
:1011E000D6D1A3895B063FF536AF09981DB0BDE89F
:1011F000F08F03AB00932246064B04A9404600F053
:1012000081F8EAE7081A00080E1A0008121A000806
:1012100000000000790F00082DE9F04791461F46B5
:101220008A680B69DDF820809342B8BF1346C9F87D
:10123000003091F8432006460C4612B10133C9F83C
:1012400000302368990642BFD9F800300233C9F84C
:101250000030256815F0060507D104F1190AE36886
:10126000D9F800209B1AAB4228DC94F8433022685E
:10127000003318BF012392062DD404F143023946EE
:101280003046C047013020D02368E568D9F80020F7
:1012900003F00603042B08BFAD1AA36822690CBF34
:1012A00025EAE57500259342C4BF9B1AED184FF05F
:1012B00000091A344D451AD1002008E00123524696
:1012C00039463046C047013003D14FF0FF30BDE80A
:1012D000F0870135C3E7E1185A1C302081F843003C
:1012E000224494F8451082F843100233C5E70123E5
:1012F000224639463046C0470130E6D009F101099F
:10130000D8E700002DE9F04301F1430C0C46097EBB
:1013100085B06E291746064698460C9A00F0B380B1
:1013200022D8632936D00AD8002900F0B98058297C
:1013300000F0838004F1420584F8421032E0642911
:1013400001D06929F6D120681368050603F104016C
:101350002AD51B681160002B03DA2D225B4284F82A
:1013600043206F480A2239E0732900F09D8008D895
:101370006F2920D07029DDD1236843F0200323603A
:1013800003E0752917D07829D4D1782384F8453023
:10139000644855E01368191D1B68116004F142058B
:1013A00084F8423001238CE01B68116010F0400F7C
:1013B00018BF1BB2CFE713682568181D10602806F8
:1013C00001D51B6802E06806FBD51B8854486F29CD
:1013D00014BF0A220822002184F843106568A56022
:1013E000002DC0F29580216821F004012160002BBE
:1013F0003DD1002D40F08E806546082A0BD1236830
:10140000DB0708D5236962689A42DEBF302305F8FE
:10141000013C05F1FF35ACEB05032361CDF80080FD
:101420003B4603AA21463046FFF7F6FE01304DD178
:101430004FF0FF3005B0BDE8F083394884F845101F
:10144000136821681D1D1B6815600A060BD5CA07A5
:1014500044BF41F0200121601BB9226822F0200224
:1014600022601022B7E74D0648BF9BB2EFE7654602
:10147000B3FBF2F102FB1133C35C05F8013D0B46EF
:101480000029F5D1B9E7136825686169181D106056
:1014900028061B6801D5196002E06A06FBD5198091
:1014A000002323616546B9E71368191D11601D68A3
:1014B00062680021284600F03BF808B1401B6060DC
:1014C00063682361002384F84330A7E723692A4631
:1014D00039463046C0470130AAD023689B0713D451
:1014E000E068039B9842B8BF1846A3E701234A4629
:1014F00039463046C04701309AD00135E368039A37
:101500009B1AAB42F2DCEBE7002504F11909F5E781
:10151000002BACD1037884F8423004F142056CE72B
:10152000191A00082A1A0008000000000000000034
:1015300001F0FF01102A2BDB10F0070F08D010F884
:10154000013B013A8B422DD010F0070F42B3F6D188
:10155000F0B441EA012141EA014122F007047FF0A1
:1015600000070023F0E80256083C85EA010586EAF8
:10157000010685FA47F5A3FA87F586FA47F6A5FA34
:1015800087F68EB9EED1F0BC01F0FF0102F0070240
:1015900032B110F8013B013A83EA010313B1F8D1EB
:1015A0000020704701387047002D06BF35460338CC
:1015B000073815F0010F07D1013015F4807F02BF05
:1015C000013015F4C03F0130F0BC0138704700BF56
:1015D00010B5431E0A44914200D110BD11F8014BD1
:1015E00003F8014FF7E7884210B501EB020307D873
:1015F000421E99420AD011F8014B02F8014FF8E758
:101600008342F5D98118D21AD34200D110BD13F804
:10161000014D01F8014DF7E738B50546002945D0E1
:1016200051F8043C0C1F002BB8BFE41800F0D2F8AE
:101630001F4A1368104633B9636014602846BDE83A
:10164000384000F0C8B8A3420CD921686218934210
:1016500004BF1A685B68636004BF521822600460AC
:10166000ECE713465A680AB1A242FAD91968581829
:10167000A0420BD120680144581882421960DDD184
:10168000106852685A6001441960D7E702D90C23E8
:101690002B60D3E7206821188A4204BF1168526882
:1016A000626004BF091821605C60C7E738BD00BFF5
:1016B0001C77002070B5CD1C25F0030508350C2DD6
:1016C00038BF0C25002D064601DBA94203D90C23A7
:1016D0003360002070BD00F07DF8214A1468214677
:1016E00091B9204C23681BB9304600F063F82060A4
:1016F0002946304600F05EF8431C24D10C233360A9
:10170000304600F068F8E4E70B685B1B18D40B2B3D
:101710000FD90B60CD50CC18304600F05CF804F1C6
:101720000B00231D20F00700C31AD3D05A42E25009
:10173000D0E78C424B6816BF636013600C46EBE742
:101740000C464968CCE7C41C24F00304A04205D031
:10175000211A304600F02EF80130CFD02560DBE7AB
:101760001C77002020770020F8B5074614460E4667
:1017700021B91146BDE8F840FFF79CBF22B9FFF739
:101780004BFF25462846F8BD00F026F8A0420FD2B0
:1017900021463846FFF78EFF05460028F2D0314635
:1017A0002246FFF715FF31463846FFF735FFE9E7D8
:1017B0003546E7E738B5064C002305460846236062
:1017C000FEF730FE431C02D1236803B12B6038BD05
:1017D000247700207047704751F8043C181F002BF5
:1017E000BCBF0B58C0187047537461636B2066729E
:1017F000616D653A0A000000205230203D2020250E
:101800003038580A00000000205231203D202025A9
:101810003038580A00000000205232203D20202598
:101820003038580A00000000205233203D20202587
:101830003038580A0000000020523132203D202567
:101840003038580A00000000204C52203D2020254E
:101850003038580A00000000205043203D20202549
:101860003038580A0000000020505352203D2025F7
:101870003038580A000000004653522F4641523A71
:101880000A0000002043465352203D2020253038D6
:10189000580A00002048465352203D202025303869
:1018A000580A00002044465352203D20202530385D
:1018B000580A00002041465352203D202025303850
:1018C000580A0000204D4D464152203D2025303819
:1018D000580A00002042464152203D202025303841
:1018E000580A00004D6973630A000000204C522F13
:1018F0004558435F52455455524E3D202530385887
:101900000A0000005B486172644661756C745D0A90
:10191000000000005B4275734661756C745D0A00DF
:101920005B55736167654661756C745D0A00000004
:10193000000000000000000001020304060708097F
:1019400041542B43495053454E443D004745542094
:101950002F7570646174653F6170695F6B65793D77
:1019600000000000266669656C64313D00000000DF
:1019700047455420687474703A2F2F002F73797381
:1019800074656D2E7068700D0A000000383000001C
:1019900041542B43495053544152543D22544350D7
:1019A000222C2200222C00000D0A000041542B435F
:1019B000574A41505F4355523D220000220D0A0014
:1019C00041540D0A0000000041542B43574D4F4431
:1019D000453D310D0A00000061626F6D6F73616CEF
:1019E0006C616D004162756D73616C616D0000002A
:1019F0006661777A692E66726565747A692E636F9F
:101A00006D00000034310000232D302B2000686C65
:101A10004C00656667454647003031323334353611
:101A2000373839414243444546003031323334354A
:0B1A3000363738396162636465660078
:101A3C007856341280000020000000000024F400CE
:101A4C001400002000000000000000000000000056
:101A5C00000000000000000000000000000000007A
:101A6C00000000000000000000000000000000006A
:101A7C00000000000000000000000000000000005A
:101A8C00000000000000000000000000000000004A
:101A9C00000000000000000000000000000000003A
:081AAC0000000000325476989E
:040000050800019559
:00000001FF
